:020000040800F2
:1000000018050020990100082B080008E9070008DE
:100010002908000805020008A508000800000000E3
:1000200000000000000000000000000001010008C6
:100030000702000800000000450100082D08000824
:10004000B3010008B3010008B3010008B3010008C0
:10005000B3010008B3010008B3010008B3010008B0
:10006000B3010008B3010008B3010008B3010008A0
:10007000B3010008B3010008B3010008B301000890
:10008000B3010008B3010008B3010008B301000880
:10009000B3010008B3010008B3010008B301000870
:1000A000B3010008B3010008B3010008B301000860
:1000B000B3010008B3010008B3010008B301000850
:1000C000B3010008B3010008B3010008B301000840
:1000D000B3010008B3010008B3010008B301000830
:1000E000B3010008B3010008B3010008DFF80CD029
:1000F00000F076F800480047E508000818050020E1
:10010000224B19680868B0E8F00F80F30988BFF344
:100110006F8F4FF0000080F311884EF00D0E704786
:100120000000000006480068006880F3088862B696
:1001300061B6BFF34F8FBFF36F8F00DF00BF00BF0B
:1001400008ED00E0EFF30980BFF36F8F0F4B1A68E3
:1001500020E9F00F106008B54FF0BF0080F3118860
:10016000BFF34F8FBFF36F8F00F0D2FB4FF0000053
:1001700080F31188BDE8084019680868B0E8F00FFE
:1001800080F30988BFF36F8F704700BF1000002015
:10019000EFF3058070470000064880470648004797
:1001A000FEE7FEE7FEE7FEE7FEE7FEE7FEE7FEE727
:1001B000FEE7FEE7A3080008ED000008D2B201E068
:1001C00000F8012B491EFBD270470022F6E710B55C
:1001D00013460A4604461946FFF7F0FF204610BDB5
:1001E000064C074D06E0E06840F0010394E8070084
:1001F00098471034AC42F6D3FFF77CFFE40A0008BE
:10020000040B0008FEE77047014880687047000053
:100210000000002002488168027811448160704724
:1002200000000020074810B5016841F0100101608E
:10023000032000F067F80F2000F006F800F024F823
:10024000002010BD0020024070B50D4D04464FF453
:100250007A712878B1FBF0F00A490968B1FBF0F037
:1002600000F0AEFA48B9102C07D200222146501EE9
:1002700000F028F800206C6070BD012070BD000007
:10028000000000200C0000200C4808B5816941F0F6
:1002900001018161816901F001010091C16941F0B1
:1002A0008051C161C06900F08050009004484168ED
:1002B00021F0E06141F00071416008BD0010024092
:1002C00000000140F0B40E4B1B680C46C3F3022340
:1002D000C3F10705042D00D90425191D072901D2F2
:1002E000002300E0DB1E012606FA05F1491E21402D
:1002F00099409E40761E16403143F0BC00F0D3BAC0
:100300000CED00E0064900F0070208684FF6FF0315
:10031000184040EA0220034A10430860704700007A
:100320000CED00E00000FA052DE9F0470F4605004E
:1003300061D0434E306800F00700B84209D23068FF
:1003400020F0070038433060306800F00700B84202
:1003500051D128683B4C810712D5400703D560680E
:1003600040F4E06060602878000703D5606840F4DE
:10037000605060606068A96820F0F0000843606029
:100380002878C00728D06868012810D02168022882
:1003900010D0890700292EDA616821F0030101439A
:1003A0006160FFF731FF804641F288390DE0216836
:1003B0008903EFE78901EDE7FFF726FFA0EB0801CE
:1003C000494502D90320BDE8F0876068696800F0FC
:1003D0000C00B0EB810FEFD1306800F00700B8429D
:1003E0000BD9306820F0070038433060306800F0E7
:1003F0000700B84201D00120E5E72878400705D57D
:100400006068E96820F4E0600843606028780007CD
:1004100006D56068296920F4605040EAC100606038
:1004200000F018F86168084AC1F30311515CC84034
:100430000649086006480068FFF706FF0020C2E78B
:100440000020024000100240D20A00080C000020E8
:10045000040000200E4A51680E4801F00C03042BE2
:1004600011D0082B0FD10C48C1F38343C903C05CE2
:100470000AD55168084AC1F34041921E515C054AB1
:100480005043B0FBF1F07047044948437047000007
:100490000010024000127A00C20A000800093D0064
:1004A0002DE9F84F040070D02078C04DC00749D026
:1004B0006868C0F38100012807D06868C0F3810034
:1004C000022809D16868C00306D52868800339D599
:1004D00060680028E7D035E06068B0F5803F0BD059
:1004E00010B1B0F5A02F11D0286820F4803028601A
:1004F000286820F4802002E0286840F480302860DA
:10050000606890B1FFF780FE06460AE0286840F474
:1005100080202860F0E700BFFFF776FE801B64288C
:1005200073D828688003F7D50CE0FFF76DFE064608
:1005300005E000BFFFF768FE801B6428F0D828683C
:100540008003F7D420789A4E80074FF001094FF0CE
:10055000000839D5686810F00C0F07D06868C0F340
:100560008100022809D16868C00306D42868800782
:1005700014D52069012808D110E02069B0B1C6F86F
:100580000090FFF741FE074605E00AE1FFF73CFE59
:10059000C01B0228C4D828688007F7D5286861697D
:1005A00020F0F80040EAC10028600DE0C6F80080A5
:1005B000FFF72AFE074604E0FFF726FEC01B0228CD
:1005C00023D828688007F7D4207800072CD57948ED
:1005D000A169D9B1C0F80090FFF716FE074604E004
:1005E000FFF712FEC01B02280FD8686A8007F7D5F4
:1005F00071484FF4FA510068B0FBF1F0009000BF71
:100600000098411E0091FAD20EE080E0C0F8008010
:10061000FFF7FAFD074604E0FFF7F6FDC01B0228CE
:1006200075D8686A8007F7D42078400760D5E869F4
:100630000027C00008D4E86940F08050E861E8690C
:10064000012700F0805000905C480168C90513D470
:100650000168834641F480710160FFF7D5FD824651
:1006600006E000BFFFF7D0FDA0EB0A0064284ED8DB
:10067000DBF80000C005F5D5E06801280AD008B114
:10068000052813D0286A20F001002862286A20F08B
:10069000040002E0286A40F001002862E06841F2AC
:1006A000883B98B1FFF7B0FD82460BE0286A40F026
:1006B00004002862EEE700BFFFF7A6FDA0EB0A01E9
:1006C00059455AD8286A8007F6D50CE0FFF79CFDFB
:1006D000824605E0FFF798FDA0EB0A0159454CD88A
:1006E000286A8007F6D41FB1E86920F08050E861DD
:1006F000E06988B36968C1F38101022944D0022806
:10070000C6F8608004D0FFF77FFD044638E034E08F
:10071000FFF77AFD074604E0FFF776FDC01B0228CD
:100720002BD828688001F7D4206AB0F5803F05D126
:100730006868A16820F4003008436860D4E90801C3
:100740000843696821F4741108436860C6F8609032
:10075000FFF75AFD044606E025E000BFFFF754FD11
:10076000001B022809D828688001F7D51BE000BFCC
:10077000FFF74AFD001B022802D90320BDE8F88FCD
:1007800028688001F4D40EE00128F7D06868226A56
:1007900000F48031914204D1616A00F47010884203
:1007A00001D00120EAE70020E8E700000010024045
:1007B00000004242800442420C00002000700040D1
:1007C00010B5401EB0F1807F01D3012010BD4FF065
:1007D000E02460610F21601700F065F80020A0613F
:1007E00007202061002010BDFEE700000D4808B57D
:1007F000816941F010018161816901F0100100916E
:10080000816941F020018161816901F0200100913D
:10081000816941F004018161806900F00400009069
:1008200008BD000000100240FEE7FEE710B5FFF72C
:10083000F1FC00F0A5F8012803D0BDE8104000F05D
:1008400089B810BD30B58FB028216846FFF7BDFCD0
:1008500014210AA8FFF7B9FC01210804CDE9001012
:100860000024029402250491CDE907504FF4E010D2
:1008700009906846FFF714FE08B172B6FEE70F2034
:10088000CDE90A054FF48060CDE90C4002210AA8A9
:100890000E94FFF749FD002801D072B6FEE70FB0B5
:1008A00030BD7047FEE70907090E002804DB00F1A0
:1008B000E02080F80014704700F00F0000F1E02005
:1008C00080F8141D704702E008C8121F08C1002AF2
:1008D000FAD170477047002001E001C1121F002AC1
:1008E000FBD17047FFF79EFCFFF7ACFFFFF77EFFE1
:1008F000FEE700000548816B096821B1816BC9687A
:100900000968816270474FF0FF31FAE7100000205C
:100910000E48416B11B10121C16170470021C161D5
:1009200001690B4AB1FA81F1C1F11F0101EB8101AB
:1009300002EB810101F108034A6852684A609A4259
:1009400001D152684A60D1680160704710000020F0
:100950005000002010B5BF2080F31188BFF34F8FE7
:10096000BFF36F8F00F01AF818B104494FF08050B0
:100970000860002080F3118810BD000004ED00E045
:100980000548416919B1406B18B10020704701203A
:100990007047022070470000100000202DE9F04150
:1009A000454C0026606B28B1A069401CA061304610
:1009B000BDE8F081E5686D1CE56008D1A06BE16BD6
:1009C000A163E063206A401C2062FFF793FFA16AE5
:1009D0003A488D420FD34FF0000EA16B096839B130
:1009E000A16BC968C9684A68954212D2A26202E046
:1009F0004FF0FF31A1622168C96A01EB810150F813
:100A00002100012800D90126E0690028CFD0012665
:100A1000CDE7D1E902724B69BA60D1E902277A6069
:100A20005F680A1D974201D1CF685F60C1F814E08A
:100A30001F687F1E1F60D1F828C0BCF1000F15D0C1
:100A4000D1E907379F60D1E907377B60DCF8047094
:100A500001F118039F4202D10B6ACCF80430C1F8AF
:100A600028E0DCF800305B1ECCF80030CB6A0127B0
:100A7000D4F810C09F4047EA0C07276103EB8303BB
:100A800000EB83035B688B609F68CF609F687A6030
:100A90009A60CA6A02EB820200EB82034B6150F853
:100AA00022305B1C40F82230C96A2268D26A914227
:100AB00093D9012691E7000010000020500000208B
:100AC000010202030405060708090A0B0C0D0E0FAC
:100AD00010100000000000000000010203040607DF
:100AE00008090000040B000800000020500000006E
:100AF000C6080008540B000850000020C80400007D
:100B0000D6080008010000001000000000000000EE
:100B10000024F400000000000000000000000000BD
:100B200000000000000000000000000000000000C5
:100B300000000000000000000000000000000000B5
:100B400000000000040000000000000000000000A1
:040B500000000000A1
:04000005080000ED02
:00000001FF
